{
	"contracts/simpleContract.sol": {
		"Simple": {
			"abi": [
				{
					"inputs": [],
					"stateMutability": "nonpayable",
					"type": "constructor"
				},
				{
					"inputs": [],
					"name": "Alice",
					"outputs": [
						{
							"internalType": "address",
							"name": "",
							"type": "address"
						}
					],
					"stateMutability": "view",
					"type": "function"
				},
				{
					"inputs": [],
					"name": "balance",
					"outputs": [
						{
							"internalType": "uint256",
							"name": "",
							"type": "uint256"
						}
					],
					"stateMutability": "view",
					"type": "function"
				},
				{
					"inputs": [],
					"name": "depositDate",
					"outputs": [
						{
							"internalType": "uint256",
							"name": "",
							"type": "uint256"
						}
					],
					"stateMutability": "view",
					"type": "function"
				},
				{
					"inputs": [
						{
							"internalType": "uint256",
							"name": "amount",
							"type": "uint256"
						},
						{
							"internalType": "address payable",
							"name": "Bob",
							"type": "address"
						}
					],
					"name": "withdraw",
					"outputs": [],
					"stateMutability": "payable",
					"type": "function"
				},
				{
					"stateMutability": "payable",
					"type": "receive"
				}
			],
			"devdoc": {
				"kind": "dev",
				"methods": {},
				"version": 1
			},
			"evm": {
				"assembly": "    /* \"contracts/simpleContract.sol\":66:568  contract Simple{... */\n  mstore(0x40, 0x80)\n    /* \"contracts/simpleContract.sol\":163:203  constructor(){... */\n  callvalue\n  dup1\n  iszero\n  tag_1\n  jumpi\n  0x00\n  dup1\n  revert\ntag_1:\n  pop\n    /* \"contracts/simpleContract.sol\":188:198  msg.sender */\n  caller\n    /* \"contracts/simpleContract.sol\":182:187  Alice */\n  0x00\n  dup1\n    /* \"contracts/simpleContract.sol\":182:198  Alice=msg.sender */\n  0x0100\n  exp\n  dup2\n  sload\n  dup2\n  0xffffffffffffffffffffffffffffffffffffffff\n  mul\n  not\n  and\n  swap1\n  dup4\n  0xffffffffffffffffffffffffffffffffffffffff\n  and\n  mul\n  or\n  swap1\n  sstore\n  pop\n    /* \"contracts/simpleContract.sol\":66:568  contract Simple{... */\n  dataSize(sub_0)\n  dup1\n  dataOffset(sub_0)\n  0x00\n  codecopy\n  0x00\n  return\nstop\n\nsub_0: assembly {\n        /* \"contracts/simpleContract.sol\":66:568  contract Simple{... */\n      mstore(0x40, 0x80)\n      jumpi(tag_1, lt(calldatasize, 0x04))\n      shr(0xe0, calldataload(0x00))\n      dup1\n      0xf714ce\n      eq\n      tag_3\n      jumpi\n      dup1\n      0x9877bdff\n      eq\n      tag_4\n      jumpi\n      dup1\n      0xb69ef8a8\n      eq\n      tag_5\n      jumpi\n      dup1\n      0xf6b7f945\n      eq\n      tag_6\n      jumpi\n      jump(tag_2)\n    tag_1:\n      jumpi(tag_2, calldatasize)\n        /* \"contracts/simpleContract.sol\":248:257  msg.value */\n      callvalue\n        /* \"contracts/simpleContract.sol\":239:246  balance */\n      0x01\n      0x00\n        /* \"contracts/simpleContract.sol\":239:257  balance+=msg.value */\n      dup3\n      dup3\n      sload\n      tag_9\n      swap2\n      swap1\n      tag_10\n      jump\t// in\n    tag_9:\n      swap3\n      pop\n      pop\n      dup2\n      swap1\n      sstore\n      pop\n        /* \"contracts/simpleContract.sol\":275:290  block.timestamp */\n      timestamp\n        /* \"contracts/simpleContract.sol\":263:274  depositDate */\n      0x02\n        /* \"contracts/simpleContract.sol\":263:290  depositDate=block.timestamp */\n      dup2\n      swap1\n      sstore\n      stop\n        /* \"contracts/simpleContract.sol\":66:568  contract Simple{... */\n    tag_2:\n      0x00\n      dup1\n      revert\n        /* \"contracts/simpleContract.sol\":299:566  function withdraw(uint amount, address payable Bob) payable public{... */\n    tag_3:\n      tag_11\n      0x04\n      dup1\n      calldatasize\n      sub\n      dup2\n      add\n      swap1\n      tag_12\n      swap2\n      swap1\n      tag_13\n      jump\t// in\n    tag_12:\n      tag_14\n      jump\t// in\n    tag_11:\n      stop\n        /* \"contracts/simpleContract.sol\":85:105  address public Alice */\n    tag_4:\n      callvalue\n      dup1\n      iszero\n      tag_15\n      jumpi\n      0x00\n      dup1\n      revert\n    tag_15:\n      pop\n      tag_16\n      tag_17\n      jump\t// in\n    tag_16:\n      mload(0x40)\n      tag_18\n      swap2\n      swap1\n      tag_19\n      jump\t// in\n    tag_18:\n      mload(0x40)\n      dup1\n      swap2\n      sub\n      swap1\n      return\n        /* \"contracts/simpleContract.sol\":109:131  uint256 public balance */\n    tag_5:\n      callvalue\n      dup1\n      iszero\n      tag_20\n      jumpi\n      0x00\n      dup1\n      revert\n    tag_20:\n      pop\n      tag_21\n      tag_22\n      jump\t// in\n    tag_21:\n      mload(0x40)\n      tag_23\n      swap2\n      swap1\n      tag_24\n      jump\t// in\n    tag_23:\n      mload(0x40)\n      dup1\n      swap2\n      sub\n      swap1\n      return\n        /* \"contracts/simpleContract.sol\":135:158  uint public depositDate */\n    tag_6:\n      callvalue\n      dup1\n      iszero\n      tag_25\n      jumpi\n      0x00\n      dup1\n      revert\n    tag_25:\n      pop\n      tag_26\n      tag_27\n      jump\t// in\n    tag_26:\n      mload(0x40)\n      tag_28\n      swap2\n      swap1\n      tag_24\n      jump\t// in\n    tag_28:\n      mload(0x40)\n      dup1\n      swap2\n      sub\n      swap1\n      return\n        /* \"contracts/simpleContract.sol\":299:566  function withdraw(uint amount, address payable Bob) payable public{... */\n    tag_14:\n        /* \"contracts/simpleContract.sol\":387:394  balance */\n      sload(0x01)\n        /* \"contracts/simpleContract.sol\":379:385  amount */\n      dup3\n        /* \"contracts/simpleContract.sol\":379:394  amount<=balance */\n      gt\n      iszero\n        /* \"contracts/simpleContract.sol\":371:430  require(amount<=balance, \"Not enough balance to withdraw!\") */\n      tag_30\n      jumpi\n      mload(0x40)\n      0x08c379a000000000000000000000000000000000000000000000000000000000\n      dup2\n      mstore\n      0x04\n      add\n      tag_31\n      swap1\n      tag_32\n      jump\t// in\n    tag_31:\n      mload(0x40)\n      dup1\n      swap2\n      sub\n      swap1\n      revert\n    tag_30:\n        /* \"contracts/simpleContract.sol\":473:481  24 hours */\n      0x015180\n        /* \"contracts/simpleContract.sol\":461:472  depositDate */\n      sload(0x02)\n        /* \"contracts/simpleContract.sol\":461:481  depositDate+24 hours */\n      tag_33\n      swap2\n      swap1\n      tag_10\n      jump\t// in\n    tag_33:\n        /* \"contracts/simpleContract.sol\":444:459  block.timestamp */\n      timestamp\n        /* \"contracts/simpleContract.sol\":444:481  block.timestamp>=depositDate+24 hours */\n      lt\n      iszero\n        /* \"contracts/simpleContract.sol\":436:514  require(block.timestamp>=depositDate+24 hours, \"Cannot withdraw within 1 day\") */\n      tag_34\n      jumpi\n      mload(0x40)\n      0x08c379a000000000000000000000000000000000000000000000000000000000\n      dup2\n      mstore\n      0x04\n      add\n      tag_35\n      swap1\n      tag_36\n      jump\t// in\n    tag_35:\n      mload(0x40)\n      dup1\n      swap2\n      sub\n      swap1\n      revert\n    tag_34:\n        /* \"contracts/simpleContract.sol\":520:523  Bob */\n      dup1\n        /* \"contracts/simpleContract.sol\":520:532  Bob.transfer */\n      0xffffffffffffffffffffffffffffffffffffffff\n      and\n        /* \"contracts/simpleContract.sol\":520:540  Bob.transfer(amount) */\n      0x08fc\n        /* \"contracts/simpleContract.sol\":533:539  amount */\n      dup4\n        /* \"contracts/simpleContract.sol\":520:540  Bob.transfer(amount) */\n      swap1\n      dup2\n      iszero\n      mul\n      swap1\n      mload(0x40)\n      0x00\n      mload(0x40)\n      dup1\n      dup4\n      sub\n      dup2\n      dup6\n      dup9\n      dup9\n      call\n      swap4\n      pop\n      pop\n      pop\n      pop\n      iszero\n      dup1\n      iszero\n      tag_38\n      jumpi\n      returndatasize\n      0x00\n      dup1\n      returndatacopy\n      revert(0x00, returndatasize)\n    tag_38:\n      pop\n        /* \"contracts/simpleContract.sol\":555:561  amount */\n      dup2\n        /* \"contracts/simpleContract.sol\":546:553  balance */\n      0x01\n      0x00\n        /* \"contracts/simpleContract.sol\":546:561  balance-=amount */\n      dup3\n      dup3\n      sload\n      tag_39\n      swap2\n      swap1\n      tag_40\n      jump\t// in\n    tag_39:\n      swap3\n      pop\n      pop\n      dup2\n      swap1\n      sstore\n      pop\n        /* \"contracts/simpleContract.sol\":299:566  function withdraw(uint amount, address payable Bob) payable public{... */\n      pop\n      pop\n      jump\t// out\n        /* \"contracts/simpleContract.sol\":85:105  address public Alice */\n    tag_17:\n      0x00\n      dup1\n      sload\n      swap1\n      0x0100\n      exp\n      swap1\n      div\n      0xffffffffffffffffffffffffffffffffffffffff\n      and\n      dup2\n      jump\t// out\n        /* \"contracts/simpleContract.sol\":109:131  uint256 public balance */\n    tag_22:\n      sload(0x01)\n      dup2\n      jump\t// out\n        /* \"contracts/simpleContract.sol\":135:158  uint public depositDate */\n    tag_27:\n      sload(0x02)\n      dup2\n      jump\t// out\n        /* \"#utility.yul\":7:84   */\n    tag_41:\n        /* \"#utility.yul\":44:51   */\n      0x00\n        /* \"#utility.yul\":73:78   */\n      dup2\n        /* \"#utility.yul\":62:78   */\n      swap1\n      pop\n        /* \"#utility.yul\":7:84   */\n      swap2\n      swap1\n      pop\n      jump\t// out\n        /* \"#utility.yul\":90:270   */\n    tag_42:\n        /* \"#utility.yul\":138:215   */\n      0x4e487b7100000000000000000000000000000000000000000000000000000000\n        /* \"#utility.yul\":135:136   */\n      0x00\n        /* \"#utility.yul\":128:216   */\n      mstore\n        /* \"#utility.yul\":235:239   */\n      0x11\n        /* \"#utility.yul\":232:233   */\n      0x04\n        /* \"#utility.yul\":225:240   */\n      mstore\n        /* \"#utility.yul\":259:263   */\n      0x24\n        /* \"#utility.yul\":256:257   */\n      0x00\n        /* \"#utility.yul\":249:264   */\n      revert\n        /* \"#utility.yul\":276:467   */\n    tag_10:\n        /* \"#utility.yul\":316:319   */\n      0x00\n        /* \"#utility.yul\":335:355   */\n      tag_64\n        /* \"#utility.yul\":353:354   */\n      dup3\n        /* \"#utility.yul\":335:355   */\n      tag_41\n      jump\t// in\n    tag_64:\n        /* \"#utility.yul\":330:355   */\n      swap2\n      pop\n        /* \"#utility.yul\":369:389   */\n      tag_65\n        /* \"#utility.yul\":387:388   */\n      dup4\n        /* \"#utility.yul\":369:389   */\n      tag_41\n      jump\t// in\n    tag_65:\n        /* \"#utility.yul\":364:389   */\n      swap3\n      pop\n        /* \"#utility.yul\":412:413   */\n      dup3\n        /* \"#utility.yul\":409:410   */\n      dup3\n        /* \"#utility.yul\":405:414   */\n      add\n        /* \"#utility.yul\":398:414   */\n      swap1\n      pop\n        /* \"#utility.yul\":433:436   */\n      dup1\n        /* \"#utility.yul\":430:431   */\n      dup3\n        /* \"#utility.yul\":427:437   */\n      gt\n        /* \"#utility.yul\":424:460   */\n      iszero\n      tag_66\n      jumpi\n        /* \"#utility.yul\":440:458   */\n      tag_67\n      tag_42\n      jump\t// in\n    tag_67:\n        /* \"#utility.yul\":424:460   */\n    tag_66:\n        /* \"#utility.yul\":276:467   */\n      swap3\n      swap2\n      pop\n      pop\n      jump\t// out\n        /* \"#utility.yul\":554:671   */\n    tag_44:\n        /* \"#utility.yul\":663:664   */\n      0x00\n        /* \"#utility.yul\":660:661   */\n      dup1\n        /* \"#utility.yul\":653:665   */\n      revert\n        /* \"#utility.yul\":800:922   */\n    tag_46:\n        /* \"#utility.yul\":873:897   */\n      tag_72\n        /* \"#utility.yul\":891:896   */\n      dup2\n        /* \"#utility.yul\":873:897   */\n      tag_41\n      jump\t// in\n    tag_72:\n        /* \"#utility.yul\":866:871   */\n      dup2\n        /* \"#utility.yul\":863:898   */\n      eq\n        /* \"#utility.yul\":853:916   */\n      tag_73\n      jumpi\n        /* \"#utility.yul\":912:913   */\n      0x00\n        /* \"#utility.yul\":909:910   */\n      dup1\n        /* \"#utility.yul\":902:914   */\n      revert\n        /* \"#utility.yul\":853:916   */\n    tag_73:\n        /* \"#utility.yul\":800:922   */\n      pop\n      jump\t// out\n        /* \"#utility.yul\":928:1067   */\n    tag_47:\n        /* \"#utility.yul\":974:979   */\n      0x00\n        /* \"#utility.yul\":1012:1018   */\n      dup2\n        /* \"#utility.yul\":999:1019   */\n      calldataload\n        /* \"#utility.yul\":990:1019   */\n      swap1\n      pop\n        /* \"#utility.yul\":1028:1061   */\n      tag_75\n        /* \"#utility.yul\":1055:1060   */\n      dup2\n        /* \"#utility.yul\":1028:1061   */\n      tag_46\n      jump\t// in\n    tag_75:\n        /* \"#utility.yul\":928:1067   */\n      swap3\n      swap2\n      pop\n      pop\n      jump\t// out\n        /* \"#utility.yul\":1073:1199   */\n    tag_48:\n        /* \"#utility.yul\":1110:1117   */\n      0x00\n        /* \"#utility.yul\":1150:1192   */\n      0xffffffffffffffffffffffffffffffffffffffff\n        /* \"#utility.yul\":1143:1148   */\n      dup3\n        /* \"#utility.yul\":1139:1193   */\n      and\n        /* \"#utility.yul\":1128:1193   */\n      swap1\n      pop\n        /* \"#utility.yul\":1073:1199   */\n      swap2\n      swap1\n      pop\n      jump\t// out\n        /* \"#utility.yul\":1205:1309   */\n    tag_49:\n        /* \"#utility.yul\":1250:1257   */\n      0x00\n        /* \"#utility.yul\":1279:1303   */\n      tag_78\n        /* \"#utility.yul\":1297:1302   */\n      dup3\n        /* \"#utility.yul\":1279:1303   */\n      tag_48\n      jump\t// in\n    tag_78:\n        /* \"#utility.yul\":1268:1303   */\n      swap1\n      pop\n        /* \"#utility.yul\":1205:1309   */\n      swap2\n      swap1\n      pop\n      jump\t// out\n        /* \"#utility.yul\":1315:1453   */\n    tag_50:\n        /* \"#utility.yul\":1396:1428   */\n      tag_80\n        /* \"#utility.yul\":1422:1427   */\n      dup2\n        /* \"#utility.yul\":1396:1428   */\n      tag_49\n      jump\t// in\n    tag_80:\n        /* \"#utility.yul\":1389:1394   */\n      dup2\n        /* \"#utility.yul\":1386:1429   */\n      eq\n        /* \"#utility.yul\":1376:1447   */\n      tag_81\n      jumpi\n        /* \"#utility.yul\":1443:1444   */\n      0x00\n        /* \"#utility.yul\":1440:1441   */\n      dup1\n        /* \"#utility.yul\":1433:1445   */\n      revert\n        /* \"#utility.yul\":1376:1447   */\n    tag_81:\n        /* \"#utility.yul\":1315:1453   */\n      pop\n      jump\t// out\n        /* \"#utility.yul\":1459:1614   */\n    tag_51:\n        /* \"#utility.yul\":1513:1518   */\n      0x00\n        /* \"#utility.yul\":1551:1557   */\n      dup2\n        /* \"#utility.yul\":1538:1558   */\n      calldataload\n        /* \"#utility.yul\":1529:1558   */\n      swap1\n      pop\n        /* \"#utility.yul\":1567:1608   */\n      tag_83\n        /* \"#utility.yul\":1602:1607   */\n      dup2\n        /* \"#utility.yul\":1567:1608   */\n      tag_50\n      jump\t// in\n    tag_83:\n        /* \"#utility.yul\":1459:1614   */\n      swap3\n      swap2\n      pop\n      pop\n      jump\t// out\n        /* \"#utility.yul\":1620:2110   */\n    tag_13:\n        /* \"#utility.yul\":1696:1702   */\n      0x00\n        /* \"#utility.yul\":1704:1710   */\n      dup1\n        /* \"#utility.yul\":1753:1755   */\n      0x40\n        /* \"#utility.yul\":1741:1750   */\n      dup4\n        /* \"#utility.yul\":1732:1739   */\n      dup6\n        /* \"#utility.yul\":1728:1751   */\n      sub\n        /* \"#utility.yul\":1724:1756   */\n      slt\n        /* \"#utility.yul\":1721:1840   */\n      iszero\n      tag_85\n      jumpi\n        /* \"#utility.yul\":1759:1838   */\n      tag_86\n      tag_44\n      jump\t// in\n    tag_86:\n        /* \"#utility.yul\":1721:1840   */\n    tag_85:\n        /* \"#utility.yul\":1879:1880   */\n      0x00\n        /* \"#utility.yul\":1904:1957   */\n      tag_87\n        /* \"#utility.yul\":1949:1956   */\n      dup6\n        /* \"#utility.yul\":1940:1946   */\n      dup3\n        /* \"#utility.yul\":1929:1938   */\n      dup7\n        /* \"#utility.yul\":1925:1947   */\n      add\n        /* \"#utility.yul\":1904:1957   */\n      tag_47\n      jump\t// in\n    tag_87:\n        /* \"#utility.yul\":1894:1957   */\n      swap3\n      pop\n        /* \"#utility.yul\":1850:1967   */\n      pop\n        /* \"#utility.yul\":2006:2008   */\n      0x20\n        /* \"#utility.yul\":2032:2093   */\n      tag_88\n        /* \"#utility.yul\":2085:2092   */\n      dup6\n        /* \"#utility.yul\":2076:2082   */\n      dup3\n        /* \"#utility.yul\":2065:2074   */\n      dup7\n        /* \"#utility.yul\":2061:2083   */\n      add\n        /* \"#utility.yul\":2032:2093   */\n      tag_51\n      jump\t// in\n    tag_88:\n        /* \"#utility.yul\":2022:2093   */\n      swap2\n      pop\n        /* \"#utility.yul\":1977:2103   */\n      pop\n        /* \"#utility.yul\":1620:2110   */\n      swap3\n      pop\n      swap3\n      swap1\n      pop\n      jump\t// out\n        /* \"#utility.yul\":2116:2212   */\n    tag_52:\n        /* \"#utility.yul\":2153:2160   */\n      0x00\n        /* \"#utility.yul\":2182:2206   */\n      tag_90\n        /* \"#utility.yul\":2200:2205   */\n      dup3\n        /* \"#utility.yul\":2182:2206   */\n      tag_48\n      jump\t// in\n    tag_90:\n        /* \"#utility.yul\":2171:2206   */\n      swap1\n      pop\n        /* \"#utility.yul\":2116:2212   */\n      swap2\n      swap1\n      pop\n      jump\t// out\n        /* \"#utility.yul\":2218:2336   */\n    tag_53:\n        /* \"#utility.yul\":2305:2329   */\n      tag_92\n        /* \"#utility.yul\":2323:2328   */\n      dup2\n        /* \"#utility.yul\":2305:2329   */\n      tag_52\n      jump\t// in\n    tag_92:\n        /* \"#utility.yul\":2300:2303   */\n      dup3\n        /* \"#utility.yul\":2293:2330   */\n      mstore\n        /* \"#utility.yul\":2218:2336   */\n      pop\n      pop\n      jump\t// out\n        /* \"#utility.yul\":2342:2564   */\n    tag_19:\n        /* \"#utility.yul\":2435:2439   */\n      0x00\n        /* \"#utility.yul\":2473:2475   */\n      0x20\n        /* \"#utility.yul\":2462:2471   */\n      dup3\n        /* \"#utility.yul\":2458:2476   */\n      add\n        /* \"#utility.yul\":2450:2476   */\n      swap1\n      pop\n        /* \"#utility.yul\":2486:2557   */\n      tag_94\n        /* \"#utility.yul\":2554:2555   */\n      0x00\n        /* \"#utility.yul\":2543:2552   */\n      dup4\n        /* \"#utility.yul\":2539:2556   */\n      add\n        /* \"#utility.yul\":2530:2536   */\n      dup5\n        /* \"#utility.yul\":2486:2557   */\n      tag_53\n      jump\t// in\n    tag_94:\n        /* \"#utility.yul\":2342:2564   */\n      swap3\n      swap2\n      pop\n      pop\n      jump\t// out\n        /* \"#utility.yul\":2570:2688   */\n    tag_54:\n        /* \"#utility.yul\":2657:2681   */\n      tag_96\n        /* \"#utility.yul\":2675:2680   */\n      dup2\n        /* \"#utility.yul\":2657:2681   */\n      tag_41\n      jump\t// in\n    tag_96:\n        /* \"#utility.yul\":2652:2655   */\n      dup3\n        /* \"#utility.yul\":2645:2682   */\n      mstore\n        /* \"#utility.yul\":2570:2688   */\n      pop\n      pop\n      jump\t// out\n        /* \"#utility.yul\":2694:2916   */\n    tag_24:\n        /* \"#utility.yul\":2787:2791   */\n      0x00\n        /* \"#utility.yul\":2825:2827   */\n      0x20\n        /* \"#utility.yul\":2814:2823   */\n      dup3\n        /* \"#utility.yul\":2810:2828   */\n      add\n        /* \"#utility.yul\":2802:2828   */\n      swap1\n      pop\n        /* \"#utility.yul\":2838:2909   */\n      tag_98\n        /* \"#utility.yul\":2906:2907   */\n      0x00\n        /* \"#utility.yul\":2895:2904   */\n      dup4\n        /* \"#utility.yul\":2891:2908   */\n      add\n        /* \"#utility.yul\":2882:2888   */\n      dup5\n        /* \"#utility.yul\":2838:2909   */\n      tag_54\n      jump\t// in\n    tag_98:\n        /* \"#utility.yul\":2694:2916   */\n      swap3\n      swap2\n      pop\n      pop\n      jump\t// out\n        /* \"#utility.yul\":2922:3091   */\n    tag_55:\n        /* \"#utility.yul\":3006:3017   */\n      0x00\n        /* \"#utility.yul\":3040:3046   */\n      dup3\n        /* \"#utility.yul\":3035:3038   */\n      dup3\n        /* \"#utility.yul\":3028:3047   */\n      mstore\n        /* \"#utility.yul\":3080:3084   */\n      0x20\n        /* \"#utility.yul\":3075:3078   */\n      dup3\n        /* \"#utility.yul\":3071:3085   */\n      add\n        /* \"#utility.yul\":3056:3085   */\n      swap1\n      pop\n        /* \"#utility.yul\":2922:3091   */\n      swap3\n      swap2\n      pop\n      pop\n      jump\t// out\n        /* \"#utility.yul\":3097:3278   */\n    tag_56:\n        /* \"#utility.yul\":3237:3270   */\n      0x4e6f7420656e6f7567682062616c616e636520746f2077697468647261772100\n        /* \"#utility.yul\":3233:3234   */\n      0x00\n        /* \"#utility.yul\":3225:3231   */\n      dup3\n        /* \"#utility.yul\":3221:3235   */\n      add\n        /* \"#utility.yul\":3214:3271   */\n      mstore\n        /* \"#utility.yul\":3097:3278   */\n      pop\n      jump\t// out\n        /* \"#utility.yul\":3284:3650   */\n    tag_57:\n        /* \"#utility.yul\":3426:3429   */\n      0x00\n        /* \"#utility.yul\":3447:3514   */\n      tag_102\n        /* \"#utility.yul\":3511:3513   */\n      0x1f\n        /* \"#utility.yul\":3506:3509   */\n      dup4\n        /* \"#utility.yul\":3447:3514   */\n      tag_55\n      jump\t// in\n    tag_102:\n        /* \"#utility.yul\":3440:3514   */\n      swap2\n      pop\n        /* \"#utility.yul\":3523:3616   */\n      tag_103\n        /* \"#utility.yul\":3612:3615   */\n      dup3\n        /* \"#utility.yul\":3523:3616   */\n      tag_56\n      jump\t// in\n    tag_103:\n        /* \"#utility.yul\":3641:3643   */\n      0x20\n        /* \"#utility.yul\":3636:3639   */\n      dup3\n        /* \"#utility.yul\":3632:3644   */\n      add\n        /* \"#utility.yul\":3625:3644   */\n      swap1\n      pop\n        /* \"#utility.yul\":3284:3650   */\n      swap2\n      swap1\n      pop\n      jump\t// out\n        /* \"#utility.yul\":3656:4075   */\n    tag_32:\n        /* \"#utility.yul\":3822:3826   */\n      0x00\n        /* \"#utility.yul\":3860:3862   */\n      0x20\n        /* \"#utility.yul\":3849:3858   */\n      dup3\n        /* \"#utility.yul\":3845:3863   */\n      add\n        /* \"#utility.yul\":3837:3863   */\n      swap1\n      pop\n        /* \"#utility.yul\":3909:3918   */\n      dup2\n        /* \"#utility.yul\":3903:3907   */\n      dup2\n        /* \"#utility.yul\":3899:3919   */\n      sub\n        /* \"#utility.yul\":3895:3896   */\n      0x00\n        /* \"#utility.yul\":3884:3893   */\n      dup4\n        /* \"#utility.yul\":3880:3897   */\n      add\n        /* \"#utility.yul\":3873:3920   */\n      mstore\n        /* \"#utility.yul\":3937:4068   */\n      tag_105\n        /* \"#utility.yul\":4063:4067   */\n      dup2\n        /* \"#utility.yul\":3937:4068   */\n      tag_57\n      jump\t// in\n    tag_105:\n        /* \"#utility.yul\":3929:4068   */\n      swap1\n      pop\n        /* \"#utility.yul\":3656:4075   */\n      swap2\n      swap1\n      pop\n      jump\t// out\n        /* \"#utility.yul\":4081:4259   */\n    tag_58:\n        /* \"#utility.yul\":4221:4251   */\n      0x43616e6e6f742077697468647261772077697468696e20312064617900000000\n        /* \"#utility.yul\":4217:4218   */\n      0x00\n        /* \"#utility.yul\":4209:4215   */\n      dup3\n        /* \"#utility.yul\":4205:4219   */\n      add\n        /* \"#utility.yul\":4198:4252   */\n      mstore\n        /* \"#utility.yul\":4081:4259   */\n      pop\n      jump\t// out\n        /* \"#utility.yul\":4265:4631   */\n    tag_59:\n        /* \"#utility.yul\":4407:4410   */\n      0x00\n        /* \"#utility.yul\":4428:4495   */\n      tag_108\n        /* \"#utility.yul\":4492:4494   */\n      0x1c\n        /* \"#utility.yul\":4487:4490   */\n      dup4\n        /* \"#utility.yul\":4428:4495   */\n      tag_55\n      jump\t// in\n    tag_108:\n        /* \"#utility.yul\":4421:4495   */\n      swap2\n      pop\n        /* \"#utility.yul\":4504:4597   */\n      tag_109\n        /* \"#utility.yul\":4593:4596   */\n      dup3\n        /* \"#utility.yul\":4504:4597   */\n      tag_58\n      jump\t// in\n    tag_109:\n        /* \"#utility.yul\":4622:4624   */\n      0x20\n        /* \"#utility.yul\":4617:4620   */\n      dup3\n        /* \"#utility.yul\":4613:4625   */\n      add\n        /* \"#utility.yul\":4606:4625   */\n      swap1\n      pop\n        /* \"#utility.yul\":4265:4631   */\n      swap2\n      swap1\n      pop\n      jump\t// out\n        /* \"#utility.yul\":4637:5056   */\n    tag_36:\n        /* \"#utility.yul\":4803:4807   */\n      0x00\n        /* \"#utility.yul\":4841:4843   */\n      0x20\n        /* \"#utility.yul\":4830:4839   */\n      dup3\n        /* \"#utility.yul\":4826:4844   */\n      add\n        /* \"#utility.yul\":4818:4844   */\n      swap1\n      pop\n        /* \"#utility.yul\":4890:4899   */\n      dup2\n        /* \"#utility.yul\":4884:4888   */\n      dup2\n        /* \"#utility.yul\":4880:4900   */\n      sub\n        /* \"#utility.yul\":4876:4877   */\n      0x00\n        /* \"#utility.yul\":4865:4874   */\n      dup4\n        /* \"#utility.yul\":4861:4878   */\n      add\n        /* \"#utility.yul\":4854:4901   */\n      mstore\n        /* \"#utility.yul\":4918:5049   */\n      tag_111\n        /* \"#utility.yul\":5044:5048   */\n      dup2\n        /* \"#utility.yul\":4918:5049   */\n      tag_59\n      jump\t// in\n    tag_111:\n        /* \"#utility.yul\":4910:5049   */\n      swap1\n      pop\n        /* \"#utility.yul\":4637:5056   */\n      swap2\n      swap1\n      pop\n      jump\t// out\n        /* \"#utility.yul\":5062:5256   */\n    tag_40:\n        /* \"#utility.yul\":5102:5106   */\n      0x00\n        /* \"#utility.yul\":5122:5142   */\n      tag_113\n        /* \"#utility.yul\":5140:5141   */\n      dup3\n        /* \"#utility.yul\":5122:5142   */\n      tag_41\n      jump\t// in\n    tag_113:\n        /* \"#utility.yul\":5117:5142   */\n      swap2\n      pop\n        /* \"#utility.yul\":5156:5176   */\n      tag_114\n        /* \"#utility.yul\":5174:5175   */\n      dup4\n        /* \"#utility.yul\":5156:5176   */\n      tag_41\n      jump\t// in\n    tag_114:\n        /* \"#utility.yul\":5151:5176   */\n      swap3\n      pop\n        /* \"#utility.yul\":5200:5201   */\n      dup3\n        /* \"#utility.yul\":5197:5198   */\n      dup3\n        /* \"#utility.yul\":5193:5202   */\n      sub\n        /* \"#utility.yul\":5185:5202   */\n      swap1\n      pop\n        /* \"#utility.yul\":5224:5225   */\n      dup2\n        /* \"#utility.yul\":5218:5222   */\n      dup2\n        /* \"#utility.yul\":5215:5226   */\n      gt\n        /* \"#utility.yul\":5212:5249   */\n      iszero\n      tag_115\n      jumpi\n        /* \"#utility.yul\":5229:5247   */\n      tag_116\n      tag_42\n      jump\t// in\n    tag_116:\n        /* \"#utility.yul\":5212:5249   */\n    tag_115:\n        /* \"#utility.yul\":5062:5256   */\n      swap3\n      swap2\n      pop\n      pop\n      jump\t// out\n\n    auxdata: 0xa26469706673582212200b13959616ee70fd4a13cd25557bd68b5d167441de9c3e4428bb2a0e4577ec1b64736f6c63430008160033\n}\n",
				"bytecode": {
					"linkReferences": {},
					"object": "608060405234801561000f575f80fd5b50335f806101000a81548173ffffffffffffffffffffffffffffffffffffffff021916908373ffffffffffffffffffffffffffffffffffffffff1602179055506105048061005c5f395ff3fe608060405260043610610041575f3560e01c8062f714ce1461006a5780639877bdff14610086578063b69ef8a8146100b0578063f6b7f945146100da57610066565b36610066573460015f8282546100579190610261565b92505081905550426002819055005b5f80fd5b610084600480360381019061007f919061031c565b610104565b005b348015610091575f80fd5b5061009a6101fc565b6040516100a7919061037a565b60405180910390f35b3480156100bb575f80fd5b506100c461021f565b6040516100d191906103a2565b60405180910390f35b3480156100e5575f80fd5b506100ee610225565b6040516100fb91906103a2565b60405180910390f35b600154821115610149576040517f08c379a000000000000000000000000000000000000000000000000000000000815260040161014090610415565b60405180910390fd5b6201518060025461015a9190610261565b42101561019c576040517f08c379a00000000000000000000000000000000000000000000000000000000081526004016101939061047d565b60405180910390fd5b8073ffffffffffffffffffffffffffffffffffffffff166108fc8390811502906040515f60405180830381858888f193505050501580156101df573d5f803e3d5ffd5b508160015f8282546101f1919061049b565b925050819055505050565b5f8054906101000a900473ffffffffffffffffffffffffffffffffffffffff1681565b60015481565b60025481565b5f819050919050565b7f4e487b71000000000000000000000000000000000000000000000000000000005f52601160045260245ffd5b5f61026b8261022b565b91506102768361022b565b925082820190508082111561028e5761028d610234565b5b92915050565b5f80fd5b6102a18161022b565b81146102ab575f80fd5b50565b5f813590506102bc81610298565b92915050565b5f73ffffffffffffffffffffffffffffffffffffffff82169050919050565b5f6102eb826102c2565b9050919050565b6102fb816102e1565b8114610305575f80fd5b50565b5f81359050610316816102f2565b92915050565b5f806040838503121561033257610331610294565b5b5f61033f858286016102ae565b925050602061035085828601610308565b9150509250929050565b5f610364826102c2565b9050919050565b6103748161035a565b82525050565b5f60208201905061038d5f83018461036b565b92915050565b61039c8161022b565b82525050565b5f6020820190506103b55f830184610393565b92915050565b5f82825260208201905092915050565b7f4e6f7420656e6f7567682062616c616e636520746f20776974686472617721005f82015250565b5f6103ff601f836103bb565b915061040a826103cb565b602082019050919050565b5f6020820190508181035f83015261042c816103f3565b9050919050565b7f43616e6e6f742077697468647261772077697468696e203120646179000000005f82015250565b5f610467601c836103bb565b915061047282610433565b602082019050919050565b5f6020820190508181035f8301526104948161045b565b9050919050565b5f6104a58261022b565b91506104b08361022b565b92508282039050818111156104c8576104c7610234565b5b9291505056fea26469706673582212200b13959616ee70fd4a13cd25557bd68b5d167441de9c3e4428bb2a0e4577ec1b64736f6c63430008160033",
					"opcodes": "PUSH1 0x80 PUSH1 0x40 MSTORE CALLVALUE DUP1 ISZERO PUSH2 0xF JUMPI PUSH0 DUP1 REVERT JUMPDEST POP CALLER PUSH0 DUP1 PUSH2 0x100 EXP DUP2 SLOAD DUP2 PUSH20 0xFFFFFFFFFFFFFFFFFFFFFFFFFFFFFFFFFFFFFFFF MUL NOT AND SWAP1 DUP4 PUSH20 0xFFFFFFFFFFFFFFFFFFFFFFFFFFFFFFFFFFFFFFFF AND MUL OR SWAP1 SSTORE POP PUSH2 0x504 DUP1 PUSH2 0x5C PUSH0 CODECOPY PUSH0 RETURN INVALID PUSH1 0x80 PUSH1 0x40 MSTORE PUSH1 0x4 CALLDATASIZE LT PUSH2 0x41 JUMPI PUSH0 CALLDATALOAD PUSH1 0xE0 SHR DUP1 PUSH3 0xF714CE EQ PUSH2 0x6A JUMPI DUP1 PUSH4 0x9877BDFF EQ PUSH2 0x86 JUMPI DUP1 PUSH4 0xB69EF8A8 EQ PUSH2 0xB0 JUMPI DUP1 PUSH4 0xF6B7F945 EQ PUSH2 0xDA JUMPI PUSH2 0x66 JUMP JUMPDEST CALLDATASIZE PUSH2 0x66 JUMPI CALLVALUE PUSH1 0x1 PUSH0 DUP3 DUP3 SLOAD PUSH2 0x57 SWAP2 SWAP1 PUSH2 0x261 JUMP JUMPDEST SWAP3 POP POP DUP2 SWAP1 SSTORE POP TIMESTAMP PUSH1 0x2 DUP2 SWAP1 SSTORE STOP JUMPDEST PUSH0 DUP1 REVERT JUMPDEST PUSH2 0x84 PUSH1 0x4 DUP1 CALLDATASIZE SUB DUP2 ADD SWAP1 PUSH2 0x7F SWAP2 SWAP1 PUSH2 0x31C JUMP JUMPDEST PUSH2 0x104 JUMP JUMPDEST STOP JUMPDEST CALLVALUE DUP1 ISZERO PUSH2 0x91 JUMPI PUSH0 DUP1 REVERT JUMPDEST POP PUSH2 0x9A PUSH2 0x1FC JUMP JUMPDEST PUSH1 0x40 MLOAD PUSH2 0xA7 SWAP2 SWAP1 PUSH2 0x37A JUMP JUMPDEST PUSH1 0x40 MLOAD DUP1 SWAP2 SUB SWAP1 RETURN JUMPDEST CALLVALUE DUP1 ISZERO PUSH2 0xBB JUMPI PUSH0 DUP1 REVERT JUMPDEST POP PUSH2 0xC4 PUSH2 0x21F JUMP JUMPDEST PUSH1 0x40 MLOAD PUSH2 0xD1 SWAP2 SWAP1 PUSH2 0x3A2 JUMP JUMPDEST PUSH1 0x40 MLOAD DUP1 SWAP2 SUB SWAP1 RETURN JUMPDEST CALLVALUE DUP1 ISZERO PUSH2 0xE5 JUMPI PUSH0 DUP1 REVERT JUMPDEST POP PUSH2 0xEE PUSH2 0x225 JUMP JUMPDEST PUSH1 0x40 MLOAD PUSH2 0xFB SWAP2 SWAP1 PUSH2 0x3A2 JUMP JUMPDEST PUSH1 0x40 MLOAD DUP1 SWAP2 SUB SWAP1 RETURN JUMPDEST PUSH1 0x1 SLOAD DUP3 GT ISZERO PUSH2 0x149 JUMPI PUSH1 0x40 MLOAD PUSH32 0x8C379A000000000000000000000000000000000000000000000000000000000 DUP2 MSTORE PUSH1 0x4 ADD PUSH2 0x140 SWAP1 PUSH2 0x415 JUMP JUMPDEST PUSH1 0x40 MLOAD DUP1 SWAP2 SUB SWAP1 REVERT JUMPDEST PUSH3 0x15180 PUSH1 0x2 SLOAD PUSH2 0x15A SWAP2 SWAP1 PUSH2 0x261 JUMP JUMPDEST TIMESTAMP LT ISZERO PUSH2 0x19C JUMPI PUSH1 0x40 MLOAD PUSH32 0x8C379A000000000000000000000000000000000000000000000000000000000 DUP2 MSTORE PUSH1 0x4 ADD PUSH2 0x193 SWAP1 PUSH2 0x47D JUMP JUMPDEST PUSH1 0x40 MLOAD DUP1 SWAP2 SUB SWAP1 REVERT JUMPDEST DUP1 PUSH20 0xFFFFFFFFFFFFFFFFFFFFFFFFFFFFFFFFFFFFFFFF AND PUSH2 0x8FC DUP4 SWAP1 DUP2 ISZERO MUL SWAP1 PUSH1 0x40 MLOAD PUSH0 PUSH1 0x40 MLOAD DUP1 DUP4 SUB DUP2 DUP6 DUP9 DUP9 CALL SWAP4 POP POP POP POP ISZERO DUP1 ISZERO PUSH2 0x1DF JUMPI RETURNDATASIZE PUSH0 DUP1 RETURNDATACOPY RETURNDATASIZE PUSH0 REVERT JUMPDEST POP DUP2 PUSH1 0x1 PUSH0 DUP3 DUP3 SLOAD PUSH2 0x1F1 SWAP2 SWAP1 PUSH2 0x49B JUMP JUMPDEST SWAP3 POP POP DUP2 SWAP1 SSTORE POP POP POP JUMP JUMPDEST PUSH0 DUP1 SLOAD SWAP1 PUSH2 0x100 EXP SWAP1 DIV PUSH20 0xFFFFFFFFFFFFFFFFFFFFFFFFFFFFFFFFFFFFFFFF AND DUP2 JUMP JUMPDEST PUSH1 0x1 SLOAD DUP2 JUMP JUMPDEST PUSH1 0x2 SLOAD DUP2 JUMP JUMPDEST PUSH0 DUP2 SWAP1 POP SWAP2 SWAP1 POP JUMP JUMPDEST PUSH32 0x4E487B7100000000000000000000000000000000000000000000000000000000 PUSH0 MSTORE PUSH1 0x11 PUSH1 0x4 MSTORE PUSH1 0x24 PUSH0 REVERT JUMPDEST PUSH0 PUSH2 0x26B DUP3 PUSH2 0x22B JUMP JUMPDEST SWAP2 POP PUSH2 0x276 DUP4 PUSH2 0x22B JUMP JUMPDEST SWAP3 POP DUP3 DUP3 ADD SWAP1 POP DUP1 DUP3 GT ISZERO PUSH2 0x28E JUMPI PUSH2 0x28D PUSH2 0x234 JUMP JUMPDEST JUMPDEST SWAP3 SWAP2 POP POP JUMP JUMPDEST PUSH0 DUP1 REVERT JUMPDEST PUSH2 0x2A1 DUP2 PUSH2 0x22B JUMP JUMPDEST DUP2 EQ PUSH2 0x2AB JUMPI PUSH0 DUP1 REVERT JUMPDEST POP JUMP JUMPDEST PUSH0 DUP2 CALLDATALOAD SWAP1 POP PUSH2 0x2BC DUP2 PUSH2 0x298 JUMP JUMPDEST SWAP3 SWAP2 POP POP JUMP JUMPDEST PUSH0 PUSH20 0xFFFFFFFFFFFFFFFFFFFFFFFFFFFFFFFFFFFFFFFF DUP3 AND SWAP1 POP SWAP2 SWAP1 POP JUMP JUMPDEST PUSH0 PUSH2 0x2EB DUP3 PUSH2 0x2C2 JUMP JUMPDEST SWAP1 POP SWAP2 SWAP1 POP JUMP JUMPDEST PUSH2 0x2FB DUP2 PUSH2 0x2E1 JUMP JUMPDEST DUP2 EQ PUSH2 0x305 JUMPI PUSH0 DUP1 REVERT JUMPDEST POP JUMP JUMPDEST PUSH0 DUP2 CALLDATALOAD SWAP1 POP PUSH2 0x316 DUP2 PUSH2 0x2F2 JUMP JUMPDEST SWAP3 SWAP2 POP POP JUMP JUMPDEST PUSH0 DUP1 PUSH1 0x40 DUP4 DUP6 SUB SLT ISZERO PUSH2 0x332 JUMPI PUSH2 0x331 PUSH2 0x294 JUMP JUMPDEST JUMPDEST PUSH0 PUSH2 0x33F DUP6 DUP3 DUP7 ADD PUSH2 0x2AE JUMP JUMPDEST SWAP3 POP POP PUSH1 0x20 PUSH2 0x350 DUP6 DUP3 DUP7 ADD PUSH2 0x308 JUMP JUMPDEST SWAP2 POP POP SWAP3 POP SWAP3 SWAP1 POP JUMP JUMPDEST PUSH0 PUSH2 0x364 DUP3 PUSH2 0x2C2 JUMP JUMPDEST SWAP1 POP SWAP2 SWAP1 POP JUMP JUMPDEST PUSH2 0x374 DUP2 PUSH2 0x35A JUMP JUMPDEST DUP3 MSTORE POP POP JUMP JUMPDEST PUSH0 PUSH1 0x20 DUP3 ADD SWAP1 POP PUSH2 0x38D PUSH0 DUP4 ADD DUP5 PUSH2 0x36B JUMP JUMPDEST SWAP3 SWAP2 POP POP JUMP JUMPDEST PUSH2 0x39C DUP2 PUSH2 0x22B JUMP JUMPDEST DUP3 MSTORE POP POP JUMP JUMPDEST PUSH0 PUSH1 0x20 DUP3 ADD SWAP1 POP PUSH2 0x3B5 PUSH0 DUP4 ADD DUP5 PUSH2 0x393 JUMP JUMPDEST SWAP3 SWAP2 POP POP JUMP JUMPDEST PUSH0 DUP3 DUP3 MSTORE PUSH1 0x20 DUP3 ADD SWAP1 POP SWAP3 SWAP2 POP POP JUMP JUMPDEST PUSH32 0x4E6F7420656E6F7567682062616C616E636520746F2077697468647261772100 PUSH0 DUP3 ADD MSTORE POP JUMP JUMPDEST PUSH0 PUSH2 0x3FF PUSH1 0x1F DUP4 PUSH2 0x3BB JUMP JUMPDEST SWAP2 POP PUSH2 0x40A DUP3 PUSH2 0x3CB JUMP JUMPDEST PUSH1 0x20 DUP3 ADD SWAP1 POP SWAP2 SWAP1 POP JUMP JUMPDEST PUSH0 PUSH1 0x20 DUP3 ADD SWAP1 POP DUP2 DUP2 SUB PUSH0 DUP4 ADD MSTORE PUSH2 0x42C DUP2 PUSH2 0x3F3 JUMP JUMPDEST SWAP1 POP SWAP2 SWAP1 POP JUMP JUMPDEST PUSH32 0x43616E6E6F742077697468647261772077697468696E20312064617900000000 PUSH0 DUP3 ADD MSTORE POP JUMP JUMPDEST PUSH0 PUSH2 0x467 PUSH1 0x1C DUP4 PUSH2 0x3BB JUMP JUMPDEST SWAP2 POP PUSH2 0x472 DUP3 PUSH2 0x433 JUMP JUMPDEST PUSH1 0x20 DUP3 ADD SWAP1 POP SWAP2 SWAP1 POP JUMP JUMPDEST PUSH0 PUSH1 0x20 DUP3 ADD SWAP1 POP DUP2 DUP2 SUB PUSH0 DUP4 ADD MSTORE PUSH2 0x494 DUP2 PUSH2 0x45B JUMP JUMPDEST SWAP1 POP SWAP2 SWAP1 POP JUMP JUMPDEST PUSH0 PUSH2 0x4A5 DUP3 PUSH2 0x22B JUMP JUMPDEST SWAP2 POP PUSH2 0x4B0 DUP4 PUSH2 0x22B JUMP JUMPDEST SWAP3 POP DUP3 DUP3 SUB SWAP1 POP DUP2 DUP2 GT ISZERO PUSH2 0x4C8 JUMPI PUSH2 0x4C7 PUSH2 0x234 JUMP JUMPDEST JUMPDEST SWAP3 SWAP2 POP POP JUMP INVALID LOG2 PUSH5 0x6970667358 0x22 SLT KECCAK256 SIGNEXTEND SGT SWAP6 SWAP7 AND 0xEE PUSH17 0xFD4A13CD25557BD68B5D167441DE9C3E44 0x28 0xBB 0x2A 0xE GASLIMIT PUSH24 0xEC1B64736F6C634300081600330000000000000000000000 "
				},
				"gasEstimates": {
					"creation": {
						"codeDepositCost": "256800",
						"executionCost": "24563",
						"totalCost": "281363"
					},
					"external": {
						"Alice()": "2505",
						"balance()": "2447",
						"depositDate()": "2469",
						"withdraw(uint256,address)": "infinite"
					}
				},
				"methodIdentifiers": {
					"Alice()": "9877bdff",
					"balance()": "b69ef8a8",
					"depositDate()": "f6b7f945",
					"withdraw(uint256,address)": "00f714ce"
				}
			},
			"storageLayout": {
				"storage": [
					{
						"astId": 3,
						"contract": "contracts/simpleContract.sol:Simple",
						"label": "Alice",
						"offset": 0,
						"slot": "0",
						"type": "t_address"
					},
					{
						"astId": 5,
						"contract": "contracts/simpleContract.sol:Simple",
						"label": "balance",
						"offset": 0,
						"slot": "1",
						"type": "t_uint256"
					},
					{
						"astId": 7,
						"contract": "contracts/simpleContract.sol:Simple",
						"label": "depositDate",
						"offset": 0,
						"slot": "2",
						"type": "t_uint256"
					}
				],
				"types": {
					"t_address": {
						"encoding": "inplace",
						"label": "address",
						"numberOfBytes": "20"
					},
					"t_uint256": {
						"encoding": "inplace",
						"label": "uint256",
						"numberOfBytes": "32"
					}
				}
			},
			"userdoc": {
				"kind": "user",
				"methods": {},
				"version": 1
			}
		}
	}
}